:02000004080AE8
:1000000000000A0864120A08000006000600050144
:0800100004027E05000000005F
:04001800040F0A08BF
:10001C0009480A4908B5884205D0094A824202D0EB
:10002C00121A00F025FF0748074A0021121A00F0A7
:10003C002AFF064808BD00BF00000020D4110A08A2
:10004C006800002068000020E0050020E00500208A
:10005C0070B500F0D9FA074B074C1E46E41AA408F9
:10006C000025A54204D056F8253098470135F8E70D
:10007C0070BD00BF94110A08C8110A0800F011B82D
:10008C0008B500F00FF8BDE8084000F07FBA00F0AA
:10009C0051B90078B0FA80F0400970470123037021
:1000AC007047704710B500F0ABFB104900F098F9A1
:1000BC0000F0A6FB044600F039F80A22014620465F
:1000CC0000F0C0F900F09CFB094900F089F900F040
:1000DC0097FB084B19684A1C1A600A2200F0E1F9D8
:1000EC00BDE8104040F2E73000F0FEB9180F0A08E6
:1000FC002C0F0A086C00002000F000B808B5024B69
:10010C001B681B68019308BDB001060808B5024BBB
:10011C001B68DB69019308BDB401060808B5024BE6
:10012C001B685B68019308BD9C01060808B5024B6F
:10013C001B685B69019308BD9C01060808B5024B5E
:10014C001B681B6B019308BDD001060808B5024B58
:10015C001B689B69019308BDC401060808B5024BD6
:10016C001B685B6A019308BDC401060808B5024B05
:10017C001B689B6A019308BDC401060808B5024BB5
:10018C001B68DB6A019308BDC401060808B5024B65
:10019C001B681B6B019308BDC401060808B5024B14
:1001AC001B685B6B019308BDC401060808B5024BC4
:1001BC001B681B6C019308BDC401060808B5024BF3
:1001CC001B681B68019308BDD801060808B5024BD3
:1001DC001B681B69019308BDD801060808B5024BC2
:1001EC001B685B69019308BDD801060808B5024B72
:1001FC001B689B69019308BDD801060808B5024B22
:10020C001B68DB69019308BDD801060808B5024BD1
:10021C001B681B6A019308BDD801060808B5024B80
:10022C001B689B6C019308BDC001060808B5024B06
:10023C001B685B68019308BDA401060808B5024B56
:10024C001B685B69019308BDA401060808B5034B44
:10025C001B68D3F89030019308BD0000A401060878
:10026C0008B5034B1B68D3F89C30019308BD000004
:10027C00A401060808B5024B1B685B68019308BD16
:10028C00C801060808B5024B1B689B68019308BDA2
:10029C00C801060808B5024B1B68DB68019308BD52
:1002AC00C801060808B5024B1B681B69019308BD01
:1002BC00C801060808B5024B1B685B69019308BDB1
:1002CC00C801060808B5024B1B689B69019308BD61
:1002DC00C801060808B5024B1B68DB69019308BD11
:1002EC00C801060808B5024B1B681B6A019308BDC0
:1002FC00C801060808B5024B1B681B6B019308BDAF
:10030C00C801060808B5024B1B685B6B019308BD5E
:10031C00C801060808B5024B1B68DB6B019308BDCE
:10032C00CC01060808B5024B1B681B68019308BD7D
:10033C00A001060808B5024B1B685B68019308BD59
:10034C00A0010608704710B50446102100F037FCD8
:10035C00204610BD70B504460E46074B00250360C1
:10036C0040F80C5FFFF7EAFE30462671FFF7CEFE31
:10037C00A560204670BD00BF3C0F0A084FF6FF7207
:10038C00034B0020187058809A80FFF74FBF00BFB6
:10039C0070000020F8B506460D468F180024BD42AB
:1003AC000CD0336815F8011B9B6830469847002821
:1003BC0001DB0444F3E7002C08BF04462046F8BDDB
:1003CC0070B505460C46084649B100F08DFD2B680A
:1003DC00024621462846BDE87040DB68184770BDD0
:1003EC0008B5FFF7EDFF08BD03689B68184738B5E3
:1003FC000D210546FFF7F8FF0A2104462846FFF7B2
:10040C00F3FF204438BD012A98BF0A2230B50B46B1
:10041C008BB000218DF824100DF12304B3FBF2F501
:10042C0005FB1233DBB2092B94BF30333733DBB20D
:10043C00214604F801392B46002DEFD1FFF7C0FF00
:10044C000BB030BD10B422B90368C9B29B6810BCA4
:10045C001847D2B210BCFFF7D6BFFFF7F3BF2DE998
:10046C00F04107460E4615462AB9BDE8F04103682F
:10047C00C9B29B6818470A2A02D1002901DA04E0A4
:10048C00D2B2BDE8F041FFF7BEBF2D21FFF7ACFFA4
:10049C002A46044671423846FFF7B5FF2044BDE8B2
:1004AC00F08138B50546FFF7DAFF04462846FFF71A
:1004BC009EFF204438BD00231A4619464068FFF7BA
:1004CC00F9BE0000014A024B1A607047BA0F0A08C5
:1004DC0078000020024B1A68024B1A60704700BF6C
:1004EC00000000207C0000200021FFF7A7BE10B503
:1004FC008368044613B1032201469847204610BD79
:10050C0010B50446FFF7F3FF204610BD0348002347
:10051C008360034A034900F04DBB00BF80000020FC
:10052C00680000200D050A0808B5144B33B100F023
:10053C0067F903681B699847002816DC104B33B128
:10054C0000F018FA03681B699847002810DC0D4B63
:10055C000BB1AFF300800C4B7BB100F08DF903684D
:10056C001B699847002806DC08BDAFF30080E5E75F
:10057C00AFF30080EBE7AFF3008008BD0000000094
:10058C0000000000000000000000000008B5FFF7AC
:10059C00CBFFFFF7CBFD014B186008BD24050020F5
:1005AC000248034A0349121A00F062BC00400240A0
:1005BC0004400240D0110A0807B5002300931A46E4
:1005CC006FF07701FFF74CFE03B05DF804FB000001
:1005DC0007B543880A2B08D0502B09D1094B1B684F
:1005EC003BB103B05DF804EB1847FFF7E5FF06E0FD
:1005FC00002300931A466FF07701FFF731FE03B02A
:10060C005DF804FB9000002038B5104C104D2368A9
:10061C00AB42104B0CBF012200221A7002D0FFF724
:10062C00BFFF2560FFF77AFD044600F035FC0A4B4E
:10063C0013B12046AFF3008000210748FFF76AFE94
:10064C00BDE8384000210548FFF700BE00400240DD
:10065C001E1C279A9400002000000000DD050A08EB
:10066C00704710B50446182100F0A9FA204610BDB9
:10067C00F8B50F4600F10806051D002416F8011DFB
:10068C000A223846FFF7E9FEAE42044407D0002C9C
:10069C00F4D02E213846FFF7A7FE0444EEE720469F
:1006AC00F8BD000010B50446044B112240F8043B81
:1006BC00002100F0E8FB204610BD00BF5C100A08CA
:1006CC000346074A10B543F8042B01F1100251F808
:1006DC00044B914243F8044BF9D10A781A7010BDBF
:1006EC005C100A08024A41600260042202757047DD
:1006FC005C100A0810B59DF8084044EA032343EA4D
:10070C00024242EA016104234160037510BD0000FE
:10071C0037B5044D05609DF818500095FFF7EAFFBA
:10072C0003B030BD5C100A0841747047704708B5BF
:10073C000021007CFFF75AFD30EA200028BF4FF063
:10074C00FF3008BD08B50121007CFFF74FFD30EAF2
:10075C00200028BF4FF0FF3008BD08B5007CFFF724
:10076C003DFD20EAE07008BD08B5007CFFF72EFDCA
:10077C0020EAE07008BD007CFFF748BD10B50446C8
:10078C00142100F01CFA204610BD38B50446007C3C
:10079C000D46FFF723FD002801DC607C28B12946BB
:1007AC00207CFFF72BFD20EAE07038BD10B5044625
:1007BC00002363604FF47A73A360054B08462360F3
:1007CC000123217463741146FFF7F8FC204610BD19
:1007DC0070100A0810B504461422002100F053FBD7
:1007EC00054B20466360054BE36040F20113238107
:1007FC008123238210BD00BF1D0100209C0000201E
:10080C0030B50E4D87B001A8FFF7E4FF296811F051
:10081C00010410D12846FFF73CFC60B101AA214627
:10082C000748FFF7C3FF2846FFF738FC054A06497F
:10083C00034800F0BFF9024807B030BD9800002013
:10084C00200200206800002039070A0810B5044671
:10085C001422002100F017FB054B20466360054B6A
:10086C00E36040F2011323818123238210BD00BF7A
:10087C00D00200203802002010B50E4C86B001A822
:10088C00FFF7E4FF2368DB0710D42046FFF701FCD9
:10089C0060B101AA01210848FFF788FF2046FFF745
:1008AC00FDFB064A0649044800F084F9024806B0EC
:1008BC0010BD00BF34020020BC02002068000020E4
:1008CC0039070A0870474174704708B5007CFFF778
:1008DC006DFC20EAE07008BD08B5007CFFF746FC13
:1008EC0020EAE07008BD08B5007CFFF74FFC30EA49
:1008FC00200028BF4FF0FF3008BD08B5007CFFF783
:10090C003DFC30EA200028BF4FF0FF3008BD007CD2
:10091C00FFF744BC10B50446142100F050F92046F2
:10092C0010BD70B5457C04460E4625B9007CFFF71A
:10093C003DFC002805DD3146207CBDE87040FFF70A
:10094C000DBC284670BD000010B504460846114683
:10095C00002262604FF47A72A260054A2074226011
:10096C00012262741A46FFF7F1FB204610BD00BF4E
:10097C00A0100A0838B50C4D296811F0010411D1EA
:10098C002846FFF786FB68B1084A2146084B094800
:10099C00FFF7DAFF2846FFF781FB074A07490548AE
:1009AC0000F008F9034838BD6C04002070040020E6
:1009BC00E8030020D403002068000020D1080A08B6
:1009CC00002211464068FFF76DBCF0B5164689B0A1
:1009DC0011220F460446002103A800F054FA3046B9
:1009EC0000F082FA0025009581B27B6803AA30469C
:1009FC00FFF714FC20B129462046FFF773FE03E0F5
:100A0C0003A92046FFF75CFE204609B0F0BD00228A
:100A1C0011464068FFF766BC002211464068FFF79C
:100A2C0071BC00224068FFF765BC002281F0010117
:100A3C004068FFF74FBC00231A4619464068FFF781
:100A4C0041BC002211464068FFF71CBC0022022169
:100A5C004068FFF71FBC00231A464068FFF70ABC2A
:100A6C00024B04225A60024A1A607047F4040020B8
:100A7C00D0100A0800231A464068FFF7FBBB00227F
:100A8C0002214068FFF706BC002211464068FFF7C0
:100A9C00F9BB002211464068FFF704BC00231A463C
:100AAC0019464068FFF706BC00231A4619464068F1
:100ABC00FFF708BC002281F001014068FFF70ABC77
:100ACC0000224068FFF716BC002211464068FFF771
:100ADC0019BC002211464068FFF704BC70B51646DD
:100AEC008EB0044608A8FFF7DDFD1122002103A8F3
:100AFC0000F0C9F9304600F0F7F900250A4B0095D3
:100B0C0081B25B6803AA3046FFF788FB20B1294607
:100B1C002046FFF7E7FD03E003A92046FFF7D0FDD1
:100B2C0020460EB070BD00BFF4040020024B034AF7
:100B3C001A6000225A607047FC04002004110A0855
:100B4C0070B50C4C0C4E0D4D00212046FFF702FCED
:100B5C0020460B4C3246294600F02CF80121204649
:100B6C00FFF7F8FB324629462046BDE8704000F0FE
:100B7C0021B800BF040500206800002051030A08BA
:100B8C001405002013B5084C00231A46194600938F
:100B9C002046FFF7BDFD2046044A054902B0BDE8DA
:100BAC00104000F007B800BF2805002068000020A6
:100BBC006D060A080B460146184600F04BB9FFF7C4
:100BCC0066BA0000184B1A68D1075CBF01221A6084
:100BDC00164B1A68D2075CBF01221A60144B1A68B4
:100BEC00D0075CBF01221A60124B1A68D1075CBF98
:100BFC0001221A60104B1A68D2075CBF01221A60DE
:100C0C000E4B1A68D0075CBF01221A600C4B1A6895
:100C1C00D1075CBF01221A600A4B1A68D2075CBF6D
:100C2C0001221A60704700BF5C05002058050020A7
:100C3C0054050020500500204C05002048050020DC
:100C4C004405002040050020244B1A68D0075CBFE7
:100C5C0001221A60224B1A68D1075CBF01221A606C
:100C6C00204B1A68D2075CBF01221A601E4B1A680F
:100C7C00D0075CBF01221A601C4B1A68D1075CBFFD
:100C8C0001221A601A4B1A68D2075CBF01221A6043
:100C9C00184B1A68D0075CBF01221A60164B1A68F1
:100CAC00D1075CBF01221A60144B1A68D2075CBFD3
:100CBC0001221A60124B1A68D0075CBF01221A601D
:100CCC00104B1A68D1075CBF01221A600E4B1A68D0
:100CDC00D2075CBF01221A60704700BF8C05002050
:100CEC008805002084050020800500207C0500205C
:100CFC007805002074050020700500206C0500208C
:100D0C00680500206405002060050020244B1A684B
:100D1C00D0075CBF01221A60224B1A68D1075CBF56
:100D2C0001221A60204B1A68D2075CBF01221A609C
:100D3C001E4B1A68D0075CBF01221A601C4B1A6844
:100D4C00D1075CBF01221A601A4B1A68D2075CBF2C
:100D5C0001221A60184B1A68D0075CBF01221A6076
:100D6C00164B1A68D1075CBF01221A60144B1A6823
:100D7C00D2075CBF01221A60124B1A68D0075CBF05
:100D8C0001221A60104B1A68D1075CBF01221A604D
:100D9C000E4B1A68D2075CBF01221A60704700BF65
:100DAC00BC050020B8050020B4050020B0050020CB
:100DBC00AC050020A8050020A4050020A0050020FB
:100DCC009C0500209805002094050020900500202B
:100DDC00184B1A68D1075CBF01221A60164B1A68AF
:100DEC00D2075CBF01221A60144B1A68D0075CBF93
:100DFC0001221A60124B1A68D1075CBF01221A60DB
:100E0C00104B1A68D2075CBF01221A600E4B1A688D
:100E1C00D0075CBF01221A600C4B1A68D1075CBF6B
:100E2C0001221A600A4B1A68D2075CBF01221A60B1
:100E3C00704700BFDC050020D8050020D405002039
:100E4C00D0050020CC050020C8050020C4050020DA
:100E5C00C005002010B5054C13462CB10A460146BE
:100E6C000220AFF3008010BD204610BD0000000032
:100E7C0010B5431E0A44914204D011F8014B03F8FB
:100E8C00014FF8E710BD03460244934202D003F829
:100E9C00011BFAE77047000038B5124B05461C6879
:100EAC00A36BD3B91820FFF73DFA43F20E33A063BE
:100EBC0003804AF6CD33438041F2342383804EF2D3
:100ECC006D63C3804DF6EC630381052343810B23D3
:100EDC00838101220023C0E90423A36B00221D613E
:100EEC005A6138BD64000020034613F8012B002A18
:100EFC00FBD1181A013870471D000A085D000A085A
:100F0C0089000A088D000A080000000048656C6C16
:100F1C006F20576F726C642C2074696D653A2000D9
:100F2C00206C6F6F703A2000000000000000000081
:100F3C0051030A0853030A08626175640053657211
:100F4C0069616C0055534253657269616C31007470
:100F5C0079706500706172616D00636D6400696425
:100F6C0000686E64007374726D0066696C74006C5A
:100F7C00766C0061646448616E646C6572007265C5
:100F8C006D6F766548616E646C657200656E756D2B
:100F9C0048616E646C657273004A534F4E537472A1
:100FAC0065616D4C6F6748616E646C657200617051
:100FBC007000253031307520005D20002564002C38
:100FCC00200028293A2000205B00636F6465203DD7
:100FDC00200025690064657461696C73203D2000F4
:100FEC000D0A0066006C6E00666E00636F6465002F
:100FFC0064657461696C006E6F6E65007472616318
:10100C006500696E666F007761726E006572726F53
:10101C00720070616E696300616C6C005A00252B64
:10102C003033643A253032750025592D256D2D2528
:10103C00645425483A254D3A2553257A006173634B
:10104C0074696D65000000000000000000000000E5
:10105C007D060A086D060A086F060A0800000000E3
:10106C000000000039070A0889070A0897070A08D0
:10107C00A1030A0875070A083B070A0851070A0862
:10108C0083070A0867070A0835070A0800000000EA
:10109C0000000000D1080A0821090A082F090A08D3
:1010AC00A1030A08E5080A0807090A08F3080A0850
:1010BC001B090A08D3080A08D7080A080000000010
:1010CC0000000000630A0A08590A0A084F0A0A08B5
:1010DC00CD090A08C3040A08430A0A08370A0A0891
:1010EC002F0A0A08250A0A081B0A0A08D7090A083F
:1010FC000000000000000000810A0A088B0A0A08A0
:10110C00950A0A089F0A0A08A90A0A08B50A0A08D1
:10111C00C10A0A08CD0A0A08D50A0A08DF0A0A0811
:10112C00E90A0A08000000000000000000000000AE
:10113C0000000000000000000000000000000000A3
:10114C000000000000000000000000000000000093
:10115C000000000000000000000000000000000083
:10116C000000000000000000000000000000000073
:10117C000000000000000000000000000000000063
:10118C00000000004300000005010A0889030A085A
:10119C00D1040A08E1040A0819050A086D0A0A08AC
:1011AC00390B0A084D0B0A08910B0A08D10B0A08D7
:1011BC00550C0A08190D0A08DD0D0A08000000007C
:0411CC00000000001F
:0411D000000000001B
:1011D40049100A080000000030110A0850110A08DA
:1011E40070110A0800000000000000000000000068
:1011F4000000000090110A08000000000000000038
:1012040000000000000000000000000000000000DA
:1012140000000000000000000000000000000000CA
:1012240000000000000000000000000000000000BA
:0812340000000000040000208E
:10123C00FFFFFFFF00000102030405060708090A6F
:10124C000B0C0D0E0F101112131415161718191A6A
:08125C001B1C1D1E1F202800B1
:041264007856341272
:04000005080A001CC9
:00000001FF
