:02000004080AE8
:1000000000000A0888140A0800000600060005011E
:0800100004027E05000000005F
:040018000C110A08B5
:10001C0009480A4908B5884205D0094A824202D0EB
:10002C00121A01F029F80748074A0021121A01F0A8
:10003C002EF8064808BD00BF00000020F4130A0883
:10004C006C0000206C000020FC050020FC0500204A
:10005C0070B500F029FB074B074C1E46E41AA408A8
:10006C000025A54204D056F8253098470135F8E70D
:10007C0070BD00BFB4130A08E8130A0800F012B8E8
:10008C0008B500F021F8BDE8084000F0CFBA00F048
:10009C00C3B90078B0FA80F04009704701230370AF
:1000AC007047000008B5064B0121188800F002FECD
:1000BC00044B01211888BDE8084000F0FBBD00BFCF
:1000CC00700000200000002038B5104D104C28881E
:1000DC00012100F000FE0121208800F0FCFD4FF40E
:1000EC00FA6000F051FA2888002100F0F4FD00219C
:1000FC00208800F0F0FD4FF4FA6000F045FA00F0B3
:10010C00CFFBBDE83840034900F0EFB97000002088
:10011C000000002020110A0800F000B808B5024BBE
:10012C001B681B68019308BDB001060808B5024B9B
:10013C001B689B68019308BDB001060808B5024B0B
:10014C001B68DB68019308BDB001060808B5024BBB
:10015C001B681B69019308BDB001060808B5024B6A
:10016C001B68DB69019308BDB401060808B5024B96
:10017C001B681B6A019308BDB401060808B5024B45
:10018C001B685B68019308BD9C01060808B5024B0F
:10019C001B685B69019308BD9C01060808B5024BFE
:1001AC001B681B6B019308BDD001060808B5024BF8
:1001BC001B689B69019308BDC401060808B5024B76
:1001CC001B685B6A019308BDC401060808B5024BA5
:1001DC001B689B6A019308BDC401060808B5024B55
:1001EC001B68DB6A019308BDC401060808B5024B05
:1001FC001B681B6B019308BDC401060808B5024BB4
:10020C001B685B6B019308BDC401060808B5024B63
:10021C001B689B6B019308BDC401060808B5024B13
:10022C001B681B6C019308BDC401060808B5024B82
:10023C001B681B6E019308BDAC01060808B5024B88
:10024C001B685B6E019308BDAC01060808B5024B38
:10025C001B689B6E019308BDAC01060808B5024BE8
:10026C001B68DB6E019308BDAC01060808B5024B98
:10027C001B681B6F019308BDAC01060808B5024B47
:10028C001B685B6F019308BDAC01060808B5034BF6
:10029C001B68D3F88030019308BD0000AC01060840
:1002AC0008B5024B1B681B68019308BDD8010608F2
:1002BC0008B5024B1B681B69019308BDD8010608E1
:1002CC0008B5024B1B685B69019308BDD801060891
:1002DC0008B5024B1B689B69019308BDD801060841
:1002EC0008B5024B1B68DB69019308BDD8010608F1
:1002FC0008B5024B1B681B6A019308BDD8010608A0
:10030C0008B5024B1B689B6C019308BDC001060825
:10031C0008B5024B1B685B68019308BDA401060875
:10032C0008B5024B1B685B69019308BDA401060864
:10033C0008B5034B1B68D3F89030019308BD00003F
:10034C00A401060808B5034B1B68D3F89C30019335
:10035C0008BD0000A401060808B5024B1B685B68C9
:10036C00019308BDC801060808B5024B1B689B68C1
:10037C00019308BDC801060808B5024B1B68DB6871
:10038C00019308BDC801060808B5024B1B681B6920
:10039C00019308BDC801060808B5024B1B685B69D0
:1003AC00019308BDC801060808B5024B1B689B6980
:1003BC00019308BDC801060808B5024B1B68DB6930
:1003CC00019308BDC801060808B5024B1B681B6ADF
:1003DC00019308BDC801060808B5024B1B681B6BCE
:1003EC00019308BDC801060808B5024B1B685B6B7E
:1003FC00019308BDC801060808B5024B1B68DB6BEE
:10040C00019308BDCC01060808B5024B1B681B689C
:10041C00019308BDA001060808B5024B1B685B6878
:10042C00019308BDA0010608704710B504461021C1
:10043C0000F0C9FC204610BD70B504460E46074BB3
:10044C000025036040F80C5FFFF7A8FE30462671CC
:10045C00FFF784FEA560204670BD00BF34110A086A
:10046C000079FFF783BE00004FF6FF72034B0020AC
:10047C00187058809A80FFF74BBF00BF74000020A3
:10048C00F8B506460D468F180024BD420CD03368D3
:10049C0015F8011B9B6830469847002801DB044483
:1004AC00F3E7002C08BF04462046F8BD70B505469E
:1004BC000C46084649B100F01BFE2B68024621464B
:1004CC002846BDE87040DB68184770BD03689B6820
:1004DC00184738B50D210546FFF7F8FF0A210446E9
:1004EC002846FFF7F3FF204438BD38B50546FFF723
:1004FC00DDFF04462846FFF7ECFF204438BD012AF7
:10050C0098BF0A2230B50B468BB000218DF8241011
:10051C000DF12304B3FBF2F505FB1233DBB2092B0F
:10052C0094BF30333733DBB2214604F801392B4604
:10053C00002DEFD1FFF7BAFF0BB030BD10B422B9CC
:10054C000368C9B29B6810BC1847D2B210BCFFF745
:10055C00D6BFFFF7F3BF00231A4619464068FFF7D2
:10056C001BBF0000014A024B1A607047B2110A0807
:10057C007C000020024B1A68024B1A60704700BFC7
:10058C0004000020800000200021FFF7C9BE10B538
:10059C008368044613B1032201469847204610BDD8
:1005AC0010B50446FFF7F3FF204610BD03480023A7
:1005BC008360034A034900F001BC00BF84000020A3
:1005CC006C000020AD050A0808B5144B33B100F0DF
:1005DC0067F903681B699847002816DC104B33B188
:1005EC0000F01CFA03681B699847002810DC0D4BBF
:1005FC000BB1AFF300800C4B7BB100F08DF90368AD
:10060C001B699847002806DC08BDAFF30080E5E7BE
:10061C00AFF30080EBE7AFF3008008BD00000000F3
:10062C0000000000000000000000000008B5FFF70B
:10063C00CBFFFFF7ABFD014B186008BD2805002070
:10064C000248034A0349121A00F016BD004002404A
:10065C0004400240F0130A0807B5002300931A4621
:10066C006FF07701FFF76EFE03B05DF804FB00003E
:10067C0007B543880A2B08D0502B09D1094B1B68AE
:10068C003BB103B05DF804EB1847FFF7E5FF06E05C
:10069C00002300931A466FF07701FFF753FE03B067
:1006AC005DF804FB9400002038B5104C104D236805
:1006BC00AB42104B0CBF012200221A7002D0FFF784
:1006CC00BFFF2560FFF75AFD044600F0E9FC0A4B1A
:1006DC0013B12046AFF3008000210748FFF78CFED2
:1006EC00BDE8384000210548FFF722BE004002401B
:1006FC001E1C279A98000020000000007D060A08A6
:10070C00704710B50446182100F05DFB204610BD63
:10071C00F8B50F4600F10806051D002416F8011D5A
:10072C000A223846FFF715FFAE42044407D0002CCE
:10073C00F4D02E213846FFF7C9FE0444EEE72046DC
:10074C00F8BD000010B50446044B112240F8043BE0
:10075C00002100F09CFC204610BD00BF54120A087A
:10076C000346074A10B543F8042B01F1100251F867
:10077C00044B914243F8044BF9D10A781A7010BD1E
:10078C0054120A08024A4160026004220275704742
:10079C0054120A0810B59DF8084044EA032343EAB2
:1007AC00024242EA016104234160037510BD00005E
:1007BC0037B5044D05609DF818500095FFF7EAFF1A
:1007CC0003B030BD54120A0841747047704708B525
:1007DC000021007CFFF77CFD30EA200028BF4FF0A1
:1007EC00FF3008BD08B50121007CFFF771FD30EA30
:1007FC00200028BF4FF0FF3008BD08B5007CFFF784
:10080C005FFD20EAE07008BD08B5007CFFF750FDE5
:10081C0020EAE07008BD007CFFF76ABD10B5044605
:10082C00142100F0D0FA204610BD38B50446007CE7
:10083C000D46FFF745FD002801DC607C28B12946F8
:10084C00207CFFF74DFD20EAE07038BD10B5044662
:10085C00002363604FF47A73A360054B0846236052
:10086C000123217463741146FFF71AFD204610BD55
:10087C0068120A0810B504461422002100F007FC87
:10088C00054B20466360054BE36040F20113238166
:10089C008123238210BD00BF21010020A000002075
:1008AC0030B50E4D87B001A8FFF7E4FF296811F0B1
:1008BC00010410D12846FFF7ECFB60B101AA2146D8
:1008CC000748FFF7C3FF2846FFF7E8FB054A064930
:1008DC00034800F073FA024807B030BD9C000020BA
:1008EC00240200206C000020D9070A0810B5044629
:1008FC001422002100F0CBFB054B20466360054B16
:10090C00E36040F2011323818123238210BD00BFD9
:10091C00D40200203C02002010B50E4C86B001A879
:10092C00FFF7E4FF2368DB0710D42046FFF7B1FB89
:10093C0060B101AA01210848FFF788FF2046FFF7A4
:10094C00ADFB064A0649044800F038FA024806B0E6
:10095C0010BD00BF38020020C00200206C00002037
:10096C00D9070A0870474174704708B5007CFFF737
:10097C0055FC20EAE07008BD08B5007CFFF726FCAA
:10098C0020EAE07008BD08B5007CFFF72FFC30EAC8
:10099C00200028BF4FF0FF3008BD08B5007CFFF7E2
:1009AC001DFC30EA200028BF4FF0FF3008BD007C52
:1009BC00FFF724BC10B50446142100F004FA2046BD
:1009CC0010BD70B5457C04460E4625B9007CFFF77A
:1009DC0025FC002805DD3146207CBDE87040FFF782
:1009EC00EDBB284670BD000010B504460846114604
:1009FC00002262604FF47A72A260054A2074226071
:100A0C00012262741A46FFF7D1FB204610BD00BFCD
:100A1C0098120A08007CFFF7F9BB000038B50C4DA2
:100A2C00296811F0010411D12846FFF732FB68B197
:100A3C00084A2146084B0948FFF7D6FF2846FFF71E
:100A4C002DFB074A0749054800F0B8F9034838BDA3
:100A5C007004002074040020EC030020D803002054
:100A6C006C00002071090A087047F8B50646154657
:100A7C000C468F18BC4206D0336814F8011B9B68D7
:100A8C0030469847F6E72846F8BD0022007CFFF771
:100A9C00CDBB0021007CFFF7D1BB0021007CFFF710
:100AAC00D5BB0021007CFFF7D9BB0021007CFFF7F0
:100ABC00DDBB10B50446142100F085F9204610BDAD
:100ACC0010B5044608464FF47A73A360044B00211A
:100ADC00207461602360FFF7D9FB204610BD00BF76
:100AEC00C8120A080021007CFFF7C8BB002211467F
:100AFC004068FFF749BCF0B5164689B011220F4685
:100B0C000446002103A800F0C2FA304600F0F0FAC7
:100B1C000025009581B27B6803AA3046FFF7F0FBF5
:100B2C0020B129462046FFF72DFE03E003A92046FD
:100B3C00FFF716FE204609B0F0BD002211464068B2
:100B4C00FFF742BC002211464068FFF74DBC002263
:100B5C004068FFF741BC002281F001014068FFF7BB
:100B6C002BBC00231A4619464068FFF71DBC002217
:100B7C0011464068FFF7F8BB002202214068FFF7DE
:100B8C00FBBB00231A464068FFF7E6BB024B04226E
:100B9C005A60024A1A607047F8040020F0120A08E2
:100BAC0000231A464068FFF7D7BB00220221406899
:100BBC00FFF7E2BB002211464068FFF7D5BB0022CD
:100BCC0011464068FFF7E0BB00231A4619464068FF
:100BDC00FFF7E2BB00231A4619464068FFF7E4BB57
:100BEC00002281F001014068FFF7E6BB002240685B
:100BFC00FFF7F2BB002211464068FFF7F5BB00225D
:100C0C0011464068FFF7E0BB70B516468EB004463F
:100C1C0008A8FFF797FD1122002103A800F037FA6E
:100C2C00304600F065FA00250A4B009581B25B68EE
:100C3C0003AA3046FFF764FB20B129462046FFF794
:100C4C00A1FD03E003A92046FFF78AFD20460EB064
:100C5C0070BD00BFF8040020024B034A1A6000224A
:100C6C005A6070470005002024130A0810B504468A
:100C7C000F48FFF7F5FB28B1A4F10D03022B01D8A7
:100C8C00002010BD00F07AF8FFF72CFF08B1012C02
:100C9C00F6D9FFF7C3FEFFF7BDFE18B1A4F112039E
:100CAC00012BEDD9172C8CBF0020012010BD00BFEB
:100CBC0008050020172838B504460D460AD8FF2928
:100CCC0008D0FFF7D3FF28B129462046BDE83840AD
:100CDC00FFF72CBA38BD38B504460D46FFF72EFA8F
:100CEC00FF2810D0062804D84D2323FA00F0C307A0
:100CFC0009D42046FFF7BAFF28B129462046BDE8A3
:100D0C003840FFF723BA38BD70B50C4C0C4E0D4D66
:100D1C0000212046FFF790FB20460B4C324629461B
:100D2C0000F04CF801212046FFF786FB324629469D
:100D3C002046BDE8704000F041B800BF0805002017
:100D4C006C00002035040A081805002013B5084C67
:100D5C0000231A46194600932046FFF729FD20462A
:100D6C00044A054902B0BDE8104000F027B800BFA6
:100D7C002C0500206C0000200D070A0838B50B4D1F
:100D8C00296811F001040FD12846FFF782F958B1F8
:100D9C0021460748FFF794FE2846FFF77FF9054ADE
:100DAC000549034800F00AF8014838BD4405002005
:100DBC00480500206C000020750A0A080B46014605
:100DCC00184600F04BB9FFF762B90000184B1A68CF
:100DDC00D1075CBF01221A60164B1A68D2075CBFA0
:100DEC0001221A60144B1A68D0075CBF01221A60EA
:100DFC00124B1A68D1075CBF01221A60104B1A689B
:100E0C00D2075CBF01221A600E4B1A68D0075CBF78
:100E1C0001221A600C4B1A68D1075CBF01221A60C0
:100E2C000A4B1A68D2075CBF01221A60704700BFD8
:100E3C007805002074050020700500206C0500204A
:100E4C006805002064050020600500205C0500207A
:100E5C00244B1A68D0075CBF01221A60224B1A6817
:100E6C00D1075CBF01221A60204B1A68D2075CBF05
:100E7C0001221A601E4B1A68D0075CBF01221A604F
:100E8C001C4B1A68D1075CBF01221A601A4B1A68F6
:100E9C00D2075CBF01221A60184B1A68D0075CBFDE
:100EAC0001221A60164B1A68D1075CBF01221A6026
:100EBC00144B1A68D2075CBF01221A60124B1A68D5
:100ECC00D0075CBF01221A60104B1A68D1075CBFB7
:100EDC0001221A600E4B1A68D2075CBF01221A60FD
:100EEC00704700BFA8050020A4050020A005002025
:100EFC009C050020980500209405002090050020FA
:100F0C008C05002088050020840500208005002029
:100F1C007C050020244B1A68D0075CBF01221A60A4
:100F2C00224B1A68D1075CBF01221A60204B1A6849
:100F3C00D2075CBF01221A601E4B1A68D0075CBF37
:100F4C0001221A601C4B1A68D1075CBF01221A607F
:100F5C001A4B1A68D2075CBF01221A60184B1A6828
:100F6C00D0075CBF01221A60164B1A68D1075CBF10
:100F7C0001221A60144B1A68D2075CBF01221A6056
:100F8C00124B1A68D0075CBF01221A60104B1A680A
:100F9C00D1075CBF01221A600E4B1A68D2075CBFE6
:100FAC0001221A60704700BFD8050020D40500202C
:100FBC00D0050020CC050020C8050020C405002069
:100FCC00C0050020BC050020B8050020B405002099
:100FDC00B0050020AC050020184B1A68D1075CBF87
:100FEC0001221A60164B1A68D2075CBF01221A60E4
:100FFC00144B1A68D0075CBF01221A60124B1A6896
:10100C00D1075CBF01221A60104B1A68D2075CBF73
:10101C0001221A600E4B1A68D0075CBF01221A60BD
:10102C000C4B1A68D1075CBF01221A600A4B1A6874
:10103C00D2075CBF01221A60704700BFF805002080
:10104C00F4050020F0050020EC050020E805002048
:10105C00E4050020E0050020DC05002010B5054C5F
:10106C0013462CB10A4601460220AFF3008010BD96
:10107C00204610BD0000000010B5431E0A449142EA
:10108C0004D011F8014B03F8014FF8E710BD0346EB
:10109C000244934202D003F8011BFAE770470000A8
:1010AC0038B5124B05461C68A36BD3B91820FFF753
:1010BC00ABF943F20E33A06303804AF6CD33438081
:1010CC0041F2342383804EF26D63C3804DF6EC63A2
:1010DC000381052343810B23838101220023C0E973
:1010EC000423A36B00221D615A6138BD68000020E7
:1010FC00034613F8012B002AFBD1181A013870474C
:10110C001D000A085D000A0889000A088D000A08FB
:10111C0000000000596F20776F726C642100000092
:10112C00000000000000000035040A0837040A081B
:10113C00626175640053657269616C00555342536A
:10114C00657269616C3100747970650070617261EF
:10115C006D00636D6400696400686E640073747282
:10116C006D0066696C74006C766C00616464486137
:10117C006E646C65720072656D6F766548616E6445
:10118C006C657200656E756D48616E646C6572732A
:10119C00004A534F4E53747265616D4C6F674861D2
:1011AC006E646C6572006170700025303130752092
:1011BC00005D20002564002C200028293A20002006
:1011CC005B00636F6465203D2000256900646574D5
:1011DC0061696C73203D20000D0A0066006C6E0086
:1011EC00666E00636F64650064657461696C006EA3
:1011FC006F6E6500747261636500696E666F00776F
:10120C0061726E006572726F720070616E6963005C
:10121C00616C6C005A00252B3033643A25303275E2
:10122C000025592D256D2D25645425483A254D3A18
:10123C002553257A0061736374696D6500000000A5
:10124C0000000000000000001D070A080D070A0836
:10125C000F070A080000000000000000D9070A0868
:10126C0029080A0837080A088D040A0815080A080C
:10127C00DB070A08F1070A0823080A0807080A0806
:10128C00D5070A08000000000000000071090A08D8
:10129C00C1090A08CF090A088D040A0885090A0839
:1012AC00A7090A0893090A08BB090A0873090A085E
:1012BC0077090A080000000000000000750A0A08FF
:1012CC00BF0A0A08970A0A08770A0A089F0A0A0836
:1012DC00A70A0A08AF0A0A08B70A0A0800000000A1
:1012EC00000000008F0B0A08850B0A087B0B0A080C
:1012FC00F90A0A0863050A086F0B0A08630B0A0847
:10130C005B0B0A08510B0A08470B0A08030B0A0867
:10131C000000000000000000AD0B0A08B70B0A0823
:10132C00C10B0A08CB0B0A08D50B0A08E10B0A08FB
:10133C00ED0B0A08F90B0A08010C0A080B0C0A0839
:10134C00150C0A080000000000000000000000005E
:10135C000000000000000000000000000000000081
:10136C000000000000000000000000000000000071
:10137C000000000000000000000000000000000061
:10138C000000000000000000000000000000000051
:10139C000000000000000000000000000000000041
:1013AC00000000004300000025010A0875040A082B
:1013BC0071050A0881050A08B9050A08990B0A087B
:1013CC00650C0A08150D0A08590D0A08D90D0A08EA
:1013DC005D0E0A08210F0A08E50F0A08000000003C
:0413EC0000000000FD
:0413F00000000000F9
:1013F4000700000041120A080000000050130A0808
:1014040070130A0890130A0800000000000000008E
:101414000000000000000000B0130A0800000000F3
:1014240000000000000000000000000000000000B8
:1014340000000000000000000000000000000000A8
:101444000000000000000000000000000000000098
:0C14540000000000000000000800002064
:10146000FFFFFFFF00000102030405060708090A49
:101470000B0C0D0E0F101112131415161718191A44
:081480001B1C1D1E1F2028008B
:04148800785634124C
:04000005080A001CC9
:00000001FF
